:020000040000FA
:100000000C945C000C946E000C946E000C946E00CA
:100010000C946E000C946E000C946E000C946E00A8
:100020000C946E000C946E000C946E000C946E0098
:100030000C946E000C946E000C946E000C946E0088
:100040000C9446010C946E000C946E000C946E009F
:100050000C946E000C946E000C946E000C946E0068
:100060000C946E000C946E00000000002400270029
:100070002A0000000000250028002B0004040404CE
:100080000404040402020202020203030303030342
:10009000010204081020408001020408102001021F
:1000A00004081020000000080002010000030407FB
:1000B000000000000000000011241FBECFEFD8E0B8
:1000C000DEBFCDBF21E0A0E0B1E001C01D92A930AC
:1000D000B207E1F70E9490010C9470020C940000AA
:1000E00090E0FC01EC55FF4F2491FC01E057FF4FDD
:1000F0003491FC01E458FF4FE491EE23C9F0222330
:1001000039F0233001F1A8F4213019F1223029F11E
:10011000F0E0EE0FFF1FEE58FF4FA591B4918FB79F
:10012000F894EC91611126C030953E233C938FBF2B
:1001300008952730A9F02830C9F0243049F780917C
:1001400080008F7D03C0809180008F778093800036
:10015000DFCF84B58F7784BDDBCF84B58F7DFBCFB8
:100160008091B0008F778093B000D2CF8091B000A3
:100170008F7DF9CF3E2BDACFCF93DF9390E0FC0158
:10018000E057FF4F249184589F4FFC0184918823AE
:10019000D1F090E0880F991FFC01E859FF4FA5911D
:1001A000B491FC01EE58FF4FC591D49161110EC07E
:1001B0009FB7F8948C91E22FE0958E238C93288141
:1001C000E223E8839FBFDF91CF9108958FB7F89422
:1001D000EC91E22BEC938FBFF6CF1F93CF93DF937D
:1001E000182FEB0161E00E94BC00209739F460E019
:1001F000812FDF91CF911F910C947000E12FF0E0DF
:10020000EC55FF4FE491E33039F148F4E130B9F0B7
:10021000E230E9F0C038D10554F361E0E9CFE730CE
:1002200029F1E83059F1E430A9F78091800080622B
:1002300080938000D0938B00C0938A0004C084B563
:10024000806884BDC7BDDF91CF911F91089584B5AB
:10025000806284BDC8BDF7CF8091800080688093A4
:100260008000D0938900C0938800EDCF8091B000CA
:1002700080688093B000C093B300E5CF8091B00058
:1002800080628093B000C093B400DDCF1F920F92C4
:100290000FB60F9211242F933F938F939F93AF9399
:1002A000BF938091050190910601A0910701B09143
:1002B00008013091040123E0230F2D3758F50196F2
:1002C000A11DB11D209304018093050190930601A7
:1002D000A0930701B0930801809100019091010162
:1002E000A0910201B09103010196A11DB11D80935F
:1002F000000190930101A0930201B0930301BF910B
:10030000AF919F918F913F912F910F900FBE0F90C2
:100310001F90189526E8230F0296A11DB11DD2CF7C
:10032000789484B5826084BD84B5816084BD85B5D0
:10033000826085BD85B5816085BD80916E008160DC
:1003400080936E0010928100809181008260809382
:100350008100809181008160809381008091800084
:100360008160809380008091B10084608093B100AF
:100370008091B00081608093B00080917A008460A9
:1003800080937A0080917A00826080937A008091D5
:100390007A00816080937A0080917A0080688093EF
:1003A0007A001092C10061E085E00E94BC0061E02B
:1003B00086E00E94BC0061E087E00E94BC0061E032
:1003C00088E00E94BC0061E089E00E94BC0061E01E
:1003D0008AE00E94BC0060E08EE00E94BC0060E009
:1003E00087E00E94700060E088E00E94700060E09A
:1003F00089E00E94700060E08AE00E94700070E076
:1004000060E085E00E94ED0070E060E086E00E9420
:10041000ED00C0E400E010E0C0937C0080917A0021
:10042000806480937A0080917A0086FDFCCF909161
:10043000780080917900892798278927803921E0E1
:100440009207C4F460E087E00E94700061E088E0F9
:100450000E94700061E089E00E94700060E08AE024
:100460000E94700064E670E085E00E94ED0066E99D
:1004700070E01AC061E08935924004F187E00E9483
:10048000700060E088E00E94700060E089E00E94F7
:10049000700061E08AE00E94700066E970E085E02B
:1004A0000E94ED0064E670E086E00E94ED00011518
:1004B000110509F4B1CF0E940000AECF87E00E9481
:1004C000700060E088E00E94700061E089E00E94B6
:1004D000700060E08AE00E94700066E970E0C4CFBE
:0404E000F894FFCFBE
:107E0000112484B714BE81FFF0D085E080938100F7
:107E100082E08093C00088E18093C10086E0809377
:107E2000C20080E18093C4008EE0C9D0259A86E02C
:107E300020E33CEF91E0309385002093840096BBD3
:107E4000B09BFECF1D9AA8958150A9F7CC24DD24C4
:107E500088248394B5E0AB2EA1E19A2EF3E0BF2EE7
:107E6000A2D0813461F49FD0082FAFD0023811F036
:107E7000013811F484E001C083E08DD089C08234E0
:107E800011F484E103C0853419F485E0A6D080C0E4
:107E9000853579F488D0E82EFF2485D0082F10E0AE
:107EA000102F00270E291F29000F111F8ED06801E7
:107EB0006FC0863521F484E090D080E0DECF843638
:107EC00009F040C070D06FD0082F6DD080E0C81688
:107ED00080E7D80618F4F601B7BEE895C0E0D1E017
:107EE00062D089930C17E1F7F0E0CF16F0E7DF06D8
:107EF00018F0F601B7BEE89568D007B600FCFDCFD4
:107F0000A601A0E0B1E02C9130E011968C91119780
:107F100090E0982F8827822B932B1296FA010C0160
:107F200087BEE89511244E5F5F4FF1E0A038BF0790
:107F300051F7F601A7BEE89507B600FCFDCF97BE46
:107F4000E89526C08437B1F42ED02DD0F82E2BD052
:107F50003CD0F601EF2C8F010F5F1F4F84911BD097
:107F6000EA94F801C1F70894C11CD11CFA94CF0C13
:107F7000D11C0EC0853739F428D08EE10CD085E9AC
:107F80000AD08FE07ACF813511F488E018D01DD067
:107F900080E101D065CF982F8091C00085FFFCCF94
:107FA0009093C60008958091C00087FFFCCF809118
:107FB000C00084FD01C0A8958091C6000895E0E648
:107FC000F0E098E1908380830895EDDF803219F02E
:107FD00088E0F5DFFFCF84E1DECF1F93182FE3DFCA
:107FE0001150E9F7F2DF1F91089580E0E8DFEE27F6
:047FF000FF270994CA
:027FFE00040479
:00000001FF
